:1000000012C02CC02BC02AC054C028C027C026C094
:1000100025C0E0C123C022C021C020C01FC01EC017
:100020001DC01CC01BC011241FBECFE5D4E0DEBF25
:10003000CDBF10E0A0E6B0E0E8EAF0E102C0059034
:100040000D92A436B107D9F710E0A4E6B0E001C0E4
:100050001D92A03CB107E1F7B1D024C8D1CF82ED09
:1000600081BF82B5886082BD89B7806489BF88B747
:10007000806488BF14BC85E085BD02B402FCFDCF5E
:1000800017B884E886B985E083BF12BE089585B7A6
:100090008F78806385BF85B7806885BF85B78068A6
:1000A00085BF889585B78F7785BF85B78F7785BFE3
:1000B00008951F920F920FB60F9211248F939F9362
:1000C0008091640090916500019690936500809303
:1000D00064009F918F910F900FBE0F901F90189505
:1000E000C2980895CF92DF92EF92FF920F931F93E1
:1000F000DF93CF93CDB7DEB762970FB6F894DEBF2C
:100100000FBECDBF082FE62EF42EFE013196682FCC
:1001100070E0660F771F6F016E0F7F1F18C0369A51
:100120003699FECF84B195B1A0E0B0E0280F391F19
:100130004A1F5B1F1F5F1E1590F30F2C04C05695BE
:100140004795379527950A94D2F721933193E6176F
:10015000F70731F010E020E030E040E050E0EBCF76
:1001600006950695E02FF0E03196EE0FFF1FEC0D9F
:10017000FD1D8081918162960FB6F894DEBF0FBE9F
:10018000CDBFCF91DF911F910F91FF90EF90DF9046
:10019000CF90089584E086BF16BEC29A80ED97E0A6
:1001A0000197F1F782E71FD780ED97E022E330E077
:1001B000F9013197F1F70197D9F708955F926F929E
:1001C0007F928F929F92AF92BF92CF92DF92EF92E7
:1001D000FF920F931F93DF93CF93CDB7DEB72A978C
:1001E0000FB6F894DEBF0FBECDBF8CE090E00ED10D
:1001F00036DF4DD5B89ABA9AA19A8D9A8F9AC1983E
:10020000959A80E197E222E330E0F9013197F1F726
:100210000197D9F71092650010926400789412E06B
:10022000512E4E010894811C911C77247394B2E0E6
:100230006B2EA5E0CA2ED12CF8E8AF2EF3E1BF2E2D
:1002400042C088B3852588BB809164009091650089
:100250000597B8F189B78F7B89BFA998C501019728
:10026000F1F7FDD3882311F560916C0070916D005A
:1002700080916E0090916F0020916800309169002C
:1002800040916A0050916B0000E610E0C8D48130C4
:1002900029F4D0926100C092600002C0882331F43A
:1002A00081E090E090936700809366001092650073
:1002B0001092640014BC02B402FCFDCF89B78064C4
:1002C00089BFA99AE4DE8091660090916700892B2E
:1002D00009F4B7CF77C02091640030916500809118
:1002E0006000909161002817390708F469C089B748
:1002F0008F7B89BFC09A979A4DDF82E74FD68C01DA
:1003000082E727D67C0180E090E061E070E0A80100
:1003100097012ED5C2980E191F0979821A830B8373
:10032000FC82ED829E838F8385E068E043E0DADE25
:10033000A9989798C098688699878A8760916C0079
:1003400070916D0080916E0090916F002091680017
:100350003091690040916A0050916B008401EAE09D
:10036000EE2ED7D3813009F4959A959A8EEB90E0D2
:1003700071D2882349F48091BE009091BF00909380
:1003800061008093600011C0813029F4D092610037
:10039000C09260000AC08F3F41F4D0926100C092C9
:1003A0006000109267001092660010926500109233
:1003B000640089B7806489BF14BC02B402FCFDCF1D
:1003C000A99A65DE8091660090916700019709F413
:1003D00082CF79CF1F920F920FB60F9211248F9375
:1003E000809171008F5F80937100809171008F31D7
:1003F00010F0109271008F910F900FBE0F901F9010
:1004000018958091700010927000089590BD89B980
:1004100088E18AB986E880BD08955D9BFECF8CB9DE
:100420005E9BFECF5E9A089512BE89B7816089BF38
:10043000109271005F9904C0809171008E31D0F3E9
:10044000809171008A3028F081E0809370008FEFF6
:10045000089589B789BF8CB1089501C08CB15F99A7
:10046000FDCF08959B01AC015D9BFECF852F9927A1
:10047000AA27BB278CB95D9BFECF4CB95D9BFECFF5
:100480003CB95D9BFECF2CB95E9BFECF5E9A089572
:100490005D9BFECF9CB95D9BFECF8CB95E9BFECF72
:1004A0005E9A0895FC0120E030E090E004C0819164
:1004B000280F311D9F5F9617D0F3C9010895282F8B
:1004C00030E0290F311DC9010895EF92FF920F937B
:1004D0001F93E92EFF2400271127262F30E02E0D31
:1004E000311D280F311D270F311DC9011F910F919B
:1004F000FF90EF9008950F931F93959895DF082F25
:1005000080DF813009F45BC00E3711F085E03CC01C
:100510008BDF8093B6001092B70073DF813009F44F
:100520004EC01091B60000E01093B7000093B600E3
:100530007BDF90E0802B912B9093B7008093B600E7
:1005400060DF8130E1F170DF082F5BDF8130B9F1CE
:100550000A3871F469DF8093620053DF813079F1EA
:1005600063DF8093BC004DDF813049F185E028C016
:100570000093B90059DF082F44DF813001F18091E9
:10058000B800081729F082E08093B40081E018C019
:100590000093B80049DF8093BA0033DF813079F0EF
:1005A00043DF8093BB002DDF813049F03DDF809336
:1005B000B30027DF813019F08091B30001C08FEFC5
:1005C0001F910F9108952F923F924F925F926F92D9
:1005D0007F928F929F92AF92BF92CF92DF92EF92D3
:1005E000FF920F931F93DF93CF9300D000D00F9211
:1005F000CDB7DEB7959818DF182F03DF813009F4E7
:100600000EC11E3719F085E08093B4000DDF809392
:10061000B6001092B700F5DE813009F400C11B82EC
:100620001A822091B6002B831A828A819B81909333
:10063000B7008093B600F8DE90E0EA81FB818E2B54
:100640009F2B9093B7008093B600DBDE813009F4D6
:10065000E6C0EADE8093B900D4DE813009F4DFC061
:10066000E3DE8983CEDE813009F4D9C0DDDE282EB9
:10067000C8DE813009F4D3C0D7DE382EC2DE813027
:1006800009F4CDC0D1DE482EBCDE813009F4C7C0EC
:10069000CBDE582EB6DE813009F4C1C0C5DE682E2F
:1006A000B0DE813009F4BBC0BFDE782EAADE813017
:1006B00009F4B5C0B9DE882EA4DE813009F4AFC0DC
:1006C000B3DE982E9EDE813009F4A9C0ADDEF82E8F
:1006D00098DE813009F4A3C0A7DE8093B20091DEDA
:1006E000813009F49CC0E090B600F4EFEF0E92E781
:1006F000C92E90E0D92E10E009C096DEF601819354
:100700006F017FDE813009F48AC01F5F1E15A8F3D8
:100710008BDE8093BC0075DE813009F480C0A09030
:10072000BC000091B900B090B200E2E7F0E090E0C8
:10073000CC24DD2404C08191C80ED11C9F5F9E157E
:10074000D0F3992D80E02F2D30E0282B392B3D83DD
:100750002C838981282F30E040E050E0542F432F34
:10076000322F2227822D90E0A0E0B0E0822B932B45
:10077000A42BB52BBA2FA92F982F8827232D30E033
:1007800040E050E0282B392B4A2B5B2B542F432F72
:10079000322F2227642D70E080E090E0622B732BD3
:1007A000842B952B92DEF82E252D30E040E050E092
:1007B000542F432F322F2227862D90E0A0E0B0E067
:1007C000822B932BA42BB52BBA2FA92F982F8827D8
:1007D000272D30E040E050E0282B392B4A2B5B2BB3
:1007E000542F432F322F2227682D70E080E090E0B5
:1007F000622B732B842B952B68DE0A0D0B0D0F0DCE
:10080000080F9D81090FEC810E0F0C0D0F3F19F49D
:100810001092B40006C083E08093B40002C0EE24BE
:10082000EA948E2D0F900F900F900F900F90CF9114
:10083000DF911F910F91FF90EF90DF90CF90BF90CD
:10084000AF909F908F907F906F905F904F903F9070
:100850002F900895CF93DF93EC019598B4DE8F3FEE
:1008600019F4959A2FEF1AC0959A8823B1F08091C8
:100870007200883611F422E011C0873671F430918D
:10088000730020E0398328838091740090E0822BEC
:10089000932B99838883892B09F421E0822FDF91A0
:1008A000CF910895EF92FF920F931F939598BCDD1F
:1008B000082FA7DD813009F493C00E3711F085E0D1
:1008C00041C0B2DD8093B6001092B7009ADD81304E
:1008D00009F486C01091B60000E01093B7000093B1
:1008E000B600A2DD90E0802B912B9093B70080930F
:1008F000B60087DD813009F473C096DD082F81DDF5
:10090000813009F46DC00A3881F48EDD8093620075
:1009100078DD813009F464C087DD8093BC0071DD2F
:10092000813009F45DC045E05CC00093B9007CDD16
:10093000082F67DD813009F453C08091B800081793
:1009400021F082E08093B4001FC00093B8006CDDFA
:10095000F82E57DD813009F443C066DD182F51DDD4
:100960008130F1F161DDE82E4CDD8130C9F15CDDD3
:100970008093B50046DD813099F18091B5008637CE
:1009800028F08EEF8093B5004EEF2BC04DDD082F81
:1009900038DD813029F148DD8093BC0032DD8130C3
:1009A000F9F09F2D80E0212F30E0282B392B40914A
:1009B000B5008091B9009091BC00890F9091B8006A
:1009C000890F840F830F820F8E0D800F8F3F19F4D4
:1009D0001092B40006C083E08093B400402F01C0A1
:1009E0004FEF842F1F910F91FF90EF90089580910A
:1009F000B8009091B900890F9091BA00890F909139
:100A0000BB00890F9091BD00890F80958093BC0039
:100A100004DD0895CF93DF93EC01959A8091B8009F
:100A20008F5F8093B800882319F481E08093B80029
:100A300088E08093B9008EE7F0DCCE0129DD80915B
:100A4000B900EBDC8091B800E8DC8091BA00E5DC0D
:100A50008091BB00E2DC80E0DF91CF9108950F939D
:100A60001F938DE48093BA0080E58093BB0084E0FF
:100A700090E0D0DF1092BD00BADF3DDD982F8150AD
:100A8000843008F442C09530C1F39F3F81F0CCDC44
:100A9000082FB7DC813059F0C7DC182FB2DC813069
:100AA00031F0C2DC8093BC00ACDC813019F4959A43
:100AB0008FEF2CC0902F80E0412F50E0482B592B16
:100AC000959A2091B9008091BC0090E0820F911D11
:100AD0002091B800820F911D2091BA00820F911DC4
:100AE0002091BB00820F911D2091B300820F911DB8
:100AF000840F911D850F911D8F3F910511F4109268
:100B0000B40080E04E5F5F4F09F481E01F910F91C8
:100B100008954F925F926F927F928F929F92AF92C1
:100B2000BF92CF92DF92EF92FF920F931F93CF93DA
:100B3000DF933B014C0159016A01F02E0E2D959A6D
:100B400080E18093B9008091B8008F5F8093B800F6
:100B5000882319F481E08093B8008EE75EDC802F53
:100B600090E00E9695DC8091B90057DC8091B8003A
:100B700054DCC601B50176DCC401B30173DC8EEF31
:100B80009FEF86DC80E049DC80E047DC2F2D312FB1
:100B9000C9017C01EC0110E003C089913EDC1F5FBC
:100BA0001017D8F34090B9005090B80090E0C0E022
:100BB000D0E006C0F70181917F01C80FD11D9F5F72
:100BC0009017C0F3C601B50180DC182FC401B30132
:100BD0007CDC942D950D9350910F980F9C0F909560
:100BE0009093BC00892F19DC5DDE8530E9F3882302
:100BF00029F08F3F11F081E001C08FEFDF91CF919D
:100C00001F910F91FF90EF90DF90CF90BF90AF902A
:100C10009F908F907F906F905F904F900895CF92AC
:100C2000DF92EF920F931F93DF93CF930F92CDB785
:100C3000DEB76801E5E6E9838E010F5F1F4FEE2402
:100C4000E39467DF8F3F19F0BEDC8F3F19F4959A6C
:100C50002FEF13C0959A882379F03091720020E02D
:100C6000F601318320838091730090E0822B932BD7
:100C700091838083892B09F421E0822F0F90CF91FB
:100C8000DF911F910F91EF90DF90CF90089582E058
:100C900080B911B8089584EA86BF06B607FEFDCF75
:100CA00081B190E0887F883009F091E0892F089524
:100CB00084EA86BF06B607FEFDCF81B190E0887F4B
:100CC000803109F091E0892F089580FD02C028E16C
:100CD00001C020E483B984E886BF06B607FEFDCFD5
:100CE00081B140E090E0887F907030E082179307F8
:100CF00009F041E0842F089583B984E886BF06B6E1
:100D000007FEFDCF81B190E0887F883209F091E045
:100D1000892F089584EC86BF06B607FEFDCF81B10A
:100D2000887F803511F08EE7089583B1089584E8B7
:100D300086BF06B607FEFDCF81B1887F883511F0EA
:100D40008EE7089583B1089584E886BF06B607FE4E
:100D5000FDCF81B1887F883511F08FEF089583B181
:100D6000089584E986BF089506B607FEFDCF08956D
:100D70006F927F928F929F92AF92BF92CF92DF92AB
:100D8000EF92FF920F931F93CF93DF93E9016115C9
:100D9000710551F06130710571F4F7EEEF2EFFE04F
:100DA000FF2E012D112D0CC0E7E1EE2EE5E7FE2E02
:100DB000012D112D05C0E12C74E0F72E012D112D10
:100DC000892B39F464E0EE0CFF1C001F111F6A959B
:100DD000D1F79A0140E050E0C801B70122D15B0190
:100DE0006C015AE0D694C794B794A7945A95D1F75A
:100DF0009E0140E050E0C801B70113D13B014C0116
:100E00004AE096948794779467944A95D1F7A11411
:100E1000B104C104D10429F480E090E0A0E0B0E086
:100E20000EC0C401B3013AE0660F771F881F991FF7
:100E30003A95D1F7A601950113D1C901DA010196BE
:100E4000A11DB11DB695A7959795879581349105FC
:100E5000A105B10528F462EF71E0CEEBD1E049C005
:100E600081389105A105B10528F464E172E0C1ED76
:100E7000D2E03FC0813C9105A105B10528F46FE3A4
:100E800072E0CBE7D3E035C0813021E0920720E06B
:100E9000A20720E0B20728F460E772E0CEEFD3E0CB
:100EA00028C0893321E0920720E0A20720E0B207A2
:100EB00028F46FE671E0CCEFD1E01BC08B3921E064
:100EC000920720E0A20720E0B20728F462ED70E06C
:100ED000CBEFD0E00EC08B599240A040B04028F03C
:100EE00060E070E0C0E0D0E004C068E170E0C2E122
:100EF000D0E080E090E0A601950193D07B018C01C9
:100F000080E090E2A0E0B0E0E80EF91E0A1F1B1F8F
:100F1000BE0180E090E0A401930183D0E61AF70AB5
:100F2000080B190B8EE016950795F794E7948A95B0
:100F3000D1F7C701DF91CF911F910F91FF90EF90F3
:100F4000DF90CF90BF90AF909F908F907F906F90E9
:100F50000895FF920F931F93182F9DDE812FB5DE0A
:100F60008EE8CADEA5DE012F0F5F802FAEDEDFDE4A
:100F7000F82EF7DE90DE812FA8DE8FE8BDDE8BDE57
:100F8000802FA3DED4DE182FECDE312F20E02F0DD2
:100F9000311DC9011F910F91FF900895FF920F938A
:100FA0001F93182F78DE812F90DE8CE8A5DE80DE7F
:100FB000012F0F5F802F89DEBADEF82ED2DE6BDEC6
:100FC000812F83DE8DE898DE66DE802F7EDEAFDE49
:100FD000182FC7DE312F20E02F0D311DC9011F91C1
:100FE0000F91FF9008951F93182F55DE812F6DDE0E
:100FF00081E882DE81E080DEB4DE4DDE812F65DEB9
:1010000086E87ADE80E078DEACDE45DE812F5DDECC
:1010100080E872DE83E070DEA4DE80E090E01F9165
:101020000895629FD001739FF001829FE00DF11D32
:10103000649FE00DF11D929FF00D839FF00D749F52
:10104000F00D659FF00D9927729FB00DE11DF91FFE
:10105000639FB00DE11DF91FBD01CF01112408955B
:10106000A1E21A2EAA1BBB1BFD010DC0AA1FBB1FAC
:10107000EE1FFF1FA217B307E407F50720F0A21B1E
:10108000B30BE40BF50B661F771F881F991F1A948B
:1010900069F760957095809590959B01AC01BD01B5
:0810A000CF010895F894FFCF81
:0410A8000100FF0044
:00000001FF
